S01C000046616E20537065656420436F6E74726F6C6C65722E737265639E
S11300000C942A000C9447000C9447000C9447006D
S11300100C9447000C9447000C9447000C94470040
S11300200C9447000C9447000C94E1030C94B8031F
S11300300C9447000C9447000C9447000C94470020
S11300400C9447000C9447000C9447000C94470010
S11300500C94470011241FBECFE5D8E0DEBFCDBF0E
S113006010E0A0E6B0E0E0EBFBE002C005900D92EA
S1130070AE37B107D9F720E0AEE7B0E001C01D927A
S1130080A238B207E1F70E9487010C94D6050C94BC
S1130090000041E062E082E00E940E038FEC97E0F2
S11300A00197F1F700C0000040E062E082E00E94A6
S11300B00E038FEC97E00197F1F700C0000008955C
S11300C0682F83E00E94830341E060E082E00E94A5
S11300D00E030E9449008FEC97E00197F1F700C0EE
S11300E000000895682F83E00E94830340E060E0ED
S11300F082E00E940E030E9449008FEC97E0019772
S1130100F1F700C0000008950F931F93CF938C0163
S1130110C0E003C00E946000CF5FF801EC0FF11D46
S113012080818111F7CFCF911F910F910895CF93C3
S1130130DF93AC01892BA9F580E30E94600063C0C2
S1130140CE01880F991FCC0FDD1FCC0FDD1FCC0F04
S1130150DD1FC80FD91F9A01ADECBCEC0E94C70586
S11301609695879596958795969587959C01220FE8
S1130170331F880F991F880F991F880F991F820FAB
S1130180931F9A01281B390BC20FD31F9A010E9497
S1130190C705AC015695479556954795569547958D
S11301A002C0C1E0D0E04115510551F629C09E01BD
S11301B0ADECBCEC0E94C7059695879596958795FE
S11301C0969587959C01220F331F880F991F880FDE
S11301D0991F880F991F820F931F9E01281B390BAB
S11301E0C901805D0E9460009E01ADECBCEC0E94E0
S11301F0C705EC01D695C795D695C795D695C795ED
S1130200C130D105A1F6DF91CF9108959FEF980FEA
S1130210923070F4613170F4662371F0813019F416
S11302202FE7260F0AC0823041F42FEB260F05C0BA
S113023020E803C020E801C020E8822F0E94720059
S11302408FEC97E00197F1F700C00000089581E07A
S11302500E94720082E00E9472008FE99FE0019781
S1130260F1F700C0000008952FEB8AED90E02150D3
S113027080409040E1F700C0000082E00E947200DC
S11302808FEC97E00197F1F700C0000088E30E942B
S113029072008FEC97E00197F1F700C000008CE04A
S11302A00E9472008FEC97E00197F1F700C0000004
S11302B00E94270186E00E9472008FEC97E001976C
S11302C0F1F700C0000008950F931F93CF93DF93BD
S11302D000D0CDB7DEB78C011A821982CE01019607
S11302E00E94FF0229813A81A8E8B3E10E94C70570
S11302F020E038E240E050E00E94A505F8012083A8
S11303000F900F90DF91CF911F910F910895CF938C
S1130310DF93CDB7DEB7A5970FB6F894DEBF0FBE57
S1130320CDBF80E290E29B838A831C8286E0E0E674
S1130330F0E0DE01159601900D928A95E1F785E0D3
S1130340E6E6F0E0DE011B9601900D928A95E1F756
S11303508FE49EE4998B888B80E290E09B8B8A8B60
S113036085E0EBE6F0E0DE01549601900D928A956B
S1130370E1F78DE0E0E7F0E0DE01599601900D929F
S11303808A95E1F70E9493030E94E1020E943401DE
S113039061E081E00E940601CE0149960E9484003A
S11303A061E082E00E940601CE010B960E94840067
S11303B069E082E00E940601CE0105960E94840055
S11303C00E94A0030E94AF03E12CFF24FA941FEFC4
S11303D0CE0101960E9464018981181709F4E8C0CE
S11303E08A3020F0143650F0843640F46FE081E017
S11303F00E940601CE0102960E9484006EE081E014
S11304000E940601898190E00E94970089818431CD
S113041008F5143108F4CBC065E082E00E940601BF
S1130420CE0144960E948400CE0105960E94840069
S11304306EE082E00E94060185E20E94600080E393
S11304400E94600080E30E94600080E20E946000DD
S1130450F12CAEC014511B3E78F065E082E00E949E
S11304600601CE0140960E948400CE0105960E94AA
S1130470840085E20E9460006EE082E00E94060132
S113048099810DEC909F012D1124069506950695F2
S1130490000F802F880F880F080F892F801B082FCB
S11304A09C3338F084E690E00E949700FF24FA948D
S11304B07FC09233A8F0F82EF6948F2D880F880F02
S11304C08F0D0F2EF5EEFF2EF02DF80E802F90E0FD
S11304D0865A9F4F0E94970080E20E94600068C085
S11304E0973208F1082F10E0B801012E000C880B98
S11304F0990B0E94AC0423E333E343E250E40E94EB
S1130500380520E030E04FE353E40E940F040E94DA
S11305107B04F62EC801855B9F4F0E94970080E202
S11305200E94600045C09E3100F1082F10E0B80120
S1130530012E000C880B990B0E94AC0423E333E3D7
S113054043E250E40E94380520E030E042E353E403
S11305500E940F040E947B04F62EC801CC960E94D0
S1130560970080E20E94600023C0943108F1082FB4
S113057010E0B801012E000C880B990B0E94AC040A
S113058023E333E343E250E40E94380520E030E003
S11305904EEF52E40E940F040E947B04F62EC80121
S11305A0C2960E94970080E20E94600001C0F12C74
S11305B01981FE1409F40CCF8F2D0E94B603EF2C81
S11305C007CF87B18F7D87B987B1806487B987B139
S11305D08F7787B987B1807E87B987B187B986B1AC
S11305E08F7D86B986B1887F86B986B1876086B9E2
S11305F086B1806886B986B1886086B90895FC01A1
S113060096B1906496B93699FECF84B125B130E0A5
S1130610322F2227282B318320830895813011F132
S113062030F08230D1F1833009F452C00895413062
S113063059F42BB381E090E002C0880F991F6A95AA
S1130640E2F7822B8BBB089541115CC02BB381E090
S113065090E002C0880F991F6A95E2F78095822383
S11306608BBB0895413059F428B381E090E002C077
S1130670880F991F6A95E2F7822B88BB0895411170
S113068041C028B381E090E002C0880F991F6A95A9
S1130690E2F78095822388BB0895413059F425B34D
S11306A081E090E002C0880F991F6A95E2F7822BDF
S11306B085BB0895411126C025B381E090E002C0B6
S11306C0880F991F6A95E2F78095822385BB089568
S11306D0413059F422B381E090E002C0880F991FA1
S11306E06A95E2F7822B82BB089541110BC022B3B5
S11306F081E090E002C0880F991F6A95E2F7809527
S1130700822382BB0895813041F028F0823039F091
S1130710833039F008956BBB089568BB089565BBB9
S1130720089562BB08951ABA8AE087BB87E084BB48
S11307308FEF81BB1BBA82E088BB15BA12BA089549
S113074083B7877F83BF83B7806483BF83B78062A7
S113075083BF83B78F7E83BF12BE1CBE089583B749
S1130760887F83BF83B7816083BF08958CBF08955A
S11307701F920F920FB60F9211242F933F934F9312
S11307805F936F937F938F939F93AF93BF93EF93F5
S1130790FF93E0918000F0918100309709F0099572
S11307A0FF91EF91BF91AF919F918F917F916F9145
S11307B05F914F913F912F910F900FBE0F901F901B
S11307C018951F920F920FB60F9211242F933F93F7
S11307D04F935F936F937F938F939F93AF93BF9345
S11307E0EF93FF938091800090918100892B29F0F1
S11307F0E0917E00F0917F000995FF91EF91BF9108
S1130800AF919F918F917F916F915F914F913F91A4
S11308102F910F900FBE0F901F9018955058BB2723
S1130820AA270E9426040C94FE040E94F00438F0C7
S11308300E94F70420F039F49F3F19F426F40C9435
S1130840ED040EF4E095E7FB0C94E704E92F0E9415
S11308500F0558F3BA17620773078407950720F04A
S113086079F4A6F50C9431050EF4E0950B2EBA2F0D
S1130870A02D0B01B90190010C01CA01A0011124A2
S1130880FF27591B99F0593F50F4503E68F11A164E
S1130890F040A22F232F342F4427585FF3CF4695DF
S11308A037952795A795F0405395C9F77EF41F1601
S11308B0BA0B620B730B840BBAF09150A1F0FF0FCB
S11308C0BB1F661F771F881FC2F70EC0BA0F621FB7
S11308D0731F841F48F4879577956795B795F795A7
S11308E09E3F08F0B0CF9395880F08F09927EE0F3C
S11308F09795879508950E94170588F09F5798F05B
S1130900B92F9927B751B0F0E1F0660F771F881F10
S1130910991F1AF0BA95C9F714C0B13091F00E942A
S11309203105B1E008950C943105672F782F88279D
S1130930B85F39F0B93FCCF3869577956795B39551
S1130940D9F73EF490958095709561957F4F8F4FC0
S11309509F4F0895E89409C097FB3EF490958095C5
S1130960709561957F4F8F4F9F4F9923A9F0F92F71
S113097096E9BB279395F695879577956795B795EF
S1130980F111F8CFFAF4BB0F11F460FF1BC06F5FD5
S11309907F4F8F4F9F4F16C0882311F096E911C0E7
S11309A0772321F09EE8872F762F05C0662371F008
S11309B096E8862F70E060E02AF09A95660F771F1C
S11309C0881FDAF7880F9695879597F9089597F910
S11309D09F6780E870E060E008959FEF80EC0895E1
S11309E000240A941616170618060906089500240A
S11309F00A9412161306140605060895092E039484
S1130A00000C11F4882352F0BB0F40F4BF2B11F4F7
S1130A1060FF04C06F5F7F4F8F4F9F4F089557FD56
S1130A209058440F551F59F05F3F71F04795880F58
S1130A3097FB991F61F09F3F79F0879508951216EF
S1130A4013061406551FF2CF4695F1DF08C016169B
S1130A5017061806991FF1CF86957105610508944C
S1130A600895E894BB2766277727CB0197F9089563
S1130A700E944B050C94FE040E94F00438F00E947E
S1130A80F70420F0952311F00C94E7040C94ED0482
S1130A9011240C9432050E940F0570F3959FC1F345
S1130AA0950F50E0551F629FF001729FBB27F00D18
S1130AB0B11D639FAA27F00DB11DAA1F649F66276D
S1130AC0B00DA11D661F829F2227B00DA11D621FBC
S1130AD0739FB00DA11D621F839FA00D611D221F76
S1130AE0749F3327A00D611D231F849F600D211D5A
S1130AF0822F762F6A2F11249F5750409AF0F1F0DD
S1130B0088234AF0EE0FFF1FBB1F661F771F881F45
S1130B1091505040A9F79E3F510580F00C94E70492
S1130B200C9432055F3FE4F3983ED4F386957795B1
S1130B306795B795F795E7959F5FC1F7FE2B880FEB
S1130B40911D9695879597F90895A1E21A2EAA1BEF
S1130B50BB1BFD010DC0AA1FBB1FEE1FFF1FA21769
S1130B60B307E407F50720F0A21BB30BE40BF50B66
S1130B70661F771F881F991F1A9469F760957095EF
S1130B80809590959B01AC01BD01CF010895A29F72
S1130B90B001B39FC001A39F700D811D1124911D4D
S1130BA0B29F700D811D1124911D0895F894FFCFFB
S1130BB053504545440046414E3A004F46462000B6
S1110BC054454D505245545552453A200000BC
S9030000FC
